:100000000C942A000C9447000C9447000C94470071
:100010000C9447000C9447000C9447000C94470044
:100020000C9447000C9447000C9447000C94470034
:100030000C9447000C9447000C9447000C94470024
:100040000C9447000C9447000C9447000C94470014
:100050000C94470011241FBECFE5D8E0DEBFCDBF12
:1000600011E0A0E6B0E0EAE4FEE102C005900D92E6
:10007000AC37B107D9F711E0ACE7B1E001C01D9290
:10008000AE37B107E1F70E94D20B0C94230F0C940A
:100090000000A0E2B0E0EFE4F0E00C944B0C6983C8
:1000A0007A838B839C832D833E834F835887CE0135
:1000B0000196BE01675F7F4F0E94C503CE01059682
:1000C000BE016F5E7F4F0E94C5039985923088F014
:1000D00089898230C8F0943019F4823051F404C018
:1000E000843029F4923081F48CE690E0C6C09230DE
:1000F00049F420E09A858A89981321E02A87CE0165
:100100000996BBC0823049F420E09A858A89981309
:1001100021E02A8BCE014196B0C02D843E844F84CD
:1001200058886D887E888F88988CEE24FF248701FC
:10013000AA24BB24650140E050E060E070E0E0E00C
:10014000F0E0C10181709070892BE9F0E60CF71C9A
:10015000081D191D9A01AB012A0D3B1D4C1D5D1D8B
:1001600080E090E0A0E0B0E0E614F704080519058F
:1001700020F481E090E0A0E0B0E0BA01A901480FCE
:10018000591F6A1F7B1FAA0CBB1CCC1CDD1C97FED1
:1001900008C081E090E0A0E0B0E0A82AB92ACA2A0D
:1001A000DB2A3196E032F10549F0660C771C881C99
:1001B000991C5694479437942794C3CFFA85EA89BB
:1001C0002B893C898B859C85280F391F2E5F3F4FDB
:1001D00017C0CA0181709070892B61F01695079540
:1001E000F794E79480E090E0A0E0B0E8E82AF92AEC
:1001F0000A2B1B2B76956795579547952F5F3F4F99
:1002000077FDE7CF0CC0440F551F661F771F17FD02
:100210004160EE0CFF1C001F111F21503040403088
:1002200090E0590790E0690790E4790760F32B8F1D
:100230003C8FDB01CA018F779070A070B070803462
:100240009105A105B10561F447FD0AC0E114F1046F
:100250000105110529F0405C5F4F6F4F7F4F4078DB
:100260001A8EFE1711F081E08A8F4D8F5E8F6F8F8F
:1002700078A383E0898FCE0149960E94F002A09670
:10028000E2E10C94670CA8E1B0E0E9E4F1E00C9441
:10029000530C69837A838B839C832D833E834F83A6
:1002A0005887B9E0EB2EF12CEC0EFD1ECE01019625
:1002B000B7010E94C5038E010F5E1F4FCE01059648
:1002C000B8010E94C5032985223008F47EC039890F
:1002D000323010F4B8017CC08A859A8989278A87D0
:1002E000243011F0223031F4231709F06EC06CE68F
:1002F00070E06EC0343039F41D861E861F86188A61
:100300001C861B8604C0323021F484E08987B70143
:100310005FC02B853C858B899C89281B390B3C87CA
:100320002B87ED84FE840F851889AD88BE88CF8821
:10033000D88CEA14FB040C051D0540F4EE0CFF1CE0
:10034000001F111F215030403C872B8720E030E0F8
:1003500040E050E080E090E0A0E0B0E460E070E0D9
:10036000EA14FB040C051D0540F0282B392B4A2B01
:100370005B2BEA18FB080C091D09B695A795979504
:100380008795EE0CFF1C001F111F6F5F7F4F6F31B1
:10039000710531F7DA01C9018F779070A070B070E4
:1003A00080349105A105B10561F427FD0AC0E1146F
:1003B000F1040105110529F0205C3F4F4F4F5F4FBD
:1003C00020782D873E874F87588BBE01675F7F4F10
:1003D000CB010E94F0026896EAE00C946F0CA8E052
:1003E000B0E0E5EFF1E00C94540C9B01AC0183E02C
:1003F0008983DA01C9018827B7FD83959927AA2740
:10040000BB27B82E211531054105510519F482E0AD
:1004100089833AC08823A9F0203080E0380780E043
:10042000480780E8580729F460E070E080E09FEC1E
:1004300030C0EE24FF248701E21AF30A040B150BE7
:1004400002C079018A018EE1C82ED12CDC82CB82D8
:10045000ED82FE820F831887C801B7010E94A102B6
:1004600001971816190684F4082E04C0EE0CFF1C20
:10047000001F111F0A94D2F7ED82FE820F831887A6
:10048000C81AD90ADC82CB82BA82CE0101960E94B8
:10049000F0022896E9E00C94700CACE0B0E0E3E5E3
:1004A000F2E00C945B0C69837A838B839C83CE018E
:1004B0000196BE016B5F7F4F0E94C5038D81823024
:1004C00061F1823050F1843021F48E81882351F122
:1004D0002EC02F81388537FD20C06E812F31310528
:1004E0001CF06623F9F023C08EE190E0821B930B91
:1004F00029853A854B855C8504C056954795379587
:1005000027958A95D2F76623B1F05095409530959E
:1005100021953F4F4F4F5F4F0EC020E030E040E04D
:1005200050E009C02FEF3FEF4FEF5FE704C020E03E
:1005300030E040E050E8B901CA012C96E2E00C94AA
:10054000770CEF92FF920F931F937B018C0180E059
:10055000E81680E0F80681E0080780E0180788F4D4
:100560008FEFE816F1040105110531F028F088E05D
:1005700090E0A0E0B0E017C080E090E0A0E0B0E044
:1005800012C080E0E81680E0F80680E0080781E00D
:10059000180728F088E190E0A0E0B0E004C080E116
:1005A00090E0A0E0B0E020E230E040E050E0281B26
:1005B000390B4A0B5B0B04C016950795F794E7942B
:1005C0008A95D2F7F701EC58FF4F8081281B31093B
:1005D00041095109C9011F910F91FF90EF900895B2
:1005E000DF92EF92FF920F931F93FC01E480F5805E
:1005F00006811781D1808081823048F480E090E0CC
:10060000A0E1B0E0E82AF92A0A2B1B2BA5C0843010
:1006100009F49FC0823021F4EE24FF24870105C035
:10062000E114F1040105110519F4E0E0F0E096C0D1
:10063000628173819FEF623879070CF05BC022E81A
:100640003FEF261B370B2A3131052CF020E030E03C
:1006500040E050E02AC0B801A701022E04C0769500
:100660006795579547950A94D2F781E090E0A0E00E
:10067000B0E004C0880F991FAA1FBB1F2A95D2F7AC
:100680000197A109B1098E219F21A023B1230097D1
:10069000A105B10521F081E090E0A0E0B0E09A0171
:1006A000AB01282B392B4A2B5B2BDA01C9018F7741
:1006B0009070A070B07080349105A105B10539F437
:1006C00027FF09C0205C3F4F4F4F5F4F04C0215CA4
:1006D0003F4F4F4F5F4FE0E0F0E02030A0E03A079F
:1006E000A0E04A07A0E45A0710F0E1E0F0E0790149
:1006F0008A0127C06038710564F5FB01E158FF4F9E
:10070000D801C7018F779070A070B07080349105C8
:10071000A105B10539F4E7FE0DC080E490E0A0E04A
:10072000B0E004C08FE390E0A0E0B0E0E80EF91E76
:100730000A1F1B1F17FF05C016950795F794E7942E
:10074000319687E016950795F794E7948A95D1F747
:1007500005C0EE24FF248701EFEFF0E06E2F6795D0
:1007600066276795902F9F77D794DD24D7948E2F97
:100770008695492F462B582F5D29B701CA011F9135
:100780000F91FF90EF90DF900895FC01DB01408115
:1007900051812281622F6F7770E0221F2227221F52
:1007A0009381892F880F822B282F30E0991F99275A
:1007B000991F11969C93119721153105A9F54115A3
:1007C00051056105710511F482E037C082E89FEFA1
:1007D00013969C938E9312979A01AB0167E0220FB8
:1007E000331F441F551F6A95D1F783E08C930DC0CA
:1007F000220F331F441F551F12968D919C91139702
:10080000019713969C938E931297203080E03807BF
:1008100080E0480780E4580758F314962D933D93E1
:100820004D935C93179708952F3F310579F4411547
:1008300051056105710519F484E08C93089564FFF6
:1008400003C081E08C9312C01C9210C02F5730401F
:1008500013963C932E93129783E08C9387E0440F7A
:10086000551F661F771F8A95D1F7706414964D93B4
:100870005D936D937C9317970895EF920F939E2D40
:10088000379A3D9A803199F0813128F4843051F0C3
:100890008830B1F409C0803439F0803869F0803292
:1008A00079F407C0309801C0309A319A0BC0309863
:1008B00001C0309A319802C0309A319A329A03C0FE
:1008C000309831983298613039F0613018F06230E8
:1008D00041F405C03E9801C03E9A3F9802C03E9A3E
:1008E0003F9A4430E1F0453038F4423081F04330F3
:1008F00090F4413021F507C04630C9F0463098F0F9
:100900004730E9F418C087B1807F816017C087B194
:10091000807F826013C087B1807F83600FC087B102
:10092000807F84600BC087B1807F856007C087B1FE
:10093000807F866003C087B1807F876087B922236C
:1009400019F0213021F402C0339801C0339A0023FA
:1009500019F0013021F402C0359801C0359A933066
:10096000E1F0943028F4913079F0923098F409C095
:100970009530F9F09530D0F0963009F1973059F56F
:1009800021C080B78F7D02C080B7806280BF80B7F2
:100990008F7B08C080B78F7D02C080B7806280BF28
:1009A00080B7806480BF80B78F7714C080B78F7D99
:1009B00002C080B7806280BF80B78F7B08C080B7DD
:1009C0008F7D02C080B7806280BF80B7806480BFA7
:1009D00080B7806880BF0F91EF9008958330D9F081
:1009E000843028F4813079F0823088F409C0853071
:1009F000D1F08530A0F08630D1F0873001F51BC0F2
:100A000087B1807F1BC087B1807F816017C087B1AD
:100A1000807F826013C087B1807F83600FC087B101
:100A2000807F84600BC087B1807F856007C087B1FD
:100A3000807F866003C087B1807F876087B9369AE0
:100A400085E88A95F1F724B185B130E056E0359517
:100A500027955A95E1F790E0880F991F880F991F05
:100A6000282B392BC9010895843409F464C08534D6
:100A700048F4823471F1833408F044C0813409F0C1
:100A800072C00EC0823629F1833620F4813609F017
:100A90006AC006C08336B1F1843609F064C04BC029
:100AA000442359F02AB381E090E002C0880F991FD7
:100AB0006A95E2F7282B2ABB08952AB381E090E0DB
:100AC00002C0880F991F6A95E2F7809582238ABB3E
:100AD0000895442359F027B381E090E002C0880FC5
:100AE000991F6A95E2F7282B27BB089527B381E069
:100AF00090E002C0880F991F6A95E2F780958223E3
:100B000087BB0895442359F024B381E090E002C0EC
:100B1000880F991F6A95E2F7282B24BB089524B308
:100B200081E090E002C0880F991F6A95E2F78095F6
:100B3000822384BB0895442359F021B381E090E0DF
:100B400002C0880F991F6A95E2F7282B21BB0895F0
:100B500021B381E090E002C0880F991F6A95E2F707
:100B60008095822381BB0895843409F464C0853460
:100B700048F4823471F1833408F044C0813409F0C0
:100B800072C00EC0823629F1833620F4813609F016
:100B90006AC006C08336B1F1843609F064C04BC028
:100BA000442359F02BB381E090E002C0880F991FD5
:100BB0006A95E2F7282B2BBB08952BB381E090E0D8
:100BC00002C0880F991F6A95E2F7809582238BBB3C
:100BD0000895442359F028B381E090E002C0880FC3
:100BE000991F6A95E2F7282B28BB089528B381E066
:100BF00090E002C0880F991F6A95E2F780958223E2
:100C000088BB0895442359F025B381E090E002C0E9
:100C1000880F991F6A95E2F7282B25BB089525B305
:100C200081E090E002C0880F991F6A95E2F78095F5
:100C3000822385BB0895442359F022B381E090E0DC
:100C400002C0880F991F6A95E2F7282B22BB0895EE
:100C500022B381E090E002C0880F991F6A95E2F705
:100C60008095822382BB08958434D9F0853438F48A
:100C7000823499F0833498F48134A1F40CC0823624
:100C800061F0833618F4813669F405C0833639F093
:100C9000843641F406C06ABB089567BB089564BBFF
:100CA000089561BB08958434D9F0853438F48234D2
:100CB00099F0833498F48134A1F40CC0823661F049
:100CC000833618F4813669F405C0833639F08436EA
:100CD00041F406C06BBB089568BB089565BB0895D9
:100CE00062BB08958434E1F0853438F48234A1F095
:100CF0008334A0F4813461F40DC0823669F0833608
:100D000018F4813629F406C0833641F0843641F068
:100D10002EE40FC029B305C026B303C023B301C01E
:100D200020B381E090E002C0880F991F6A95E2F736
:100D30002823822F0895FC01379A339A83818130CA
:100D400011F43D9A01C03D988081918180319105D7
:100D5000F1F08131910548F48430910591F08830AB
:100D6000910599F00297E9F409C080349105A1F04A
:100D70008038910599F08097A1F40BC03098319894
:100D800002C03098319A32980CC0309AFBCF30981C
:100D900001C0309A319804C0309801C0309A319A1D
:100DA000329A8481813039F0813018F0833029F40F
:100DB00002C03E9801C03E9A3F9887B19581892B29
:100DC00087B90895369A349BFECF24B135B1C90155
:100DD000089580B9643061F0653018F4613079F4B9
:100DE00005C0603141F0603451F407C0089801C07B
:100DF000089A099804C0089801C0089A099A84E0E2
:100E000086BF089584EA86BF06B607FEFDCF089523
:100E100084E986BF089583B984E886BF06B607FED5
:100E2000FDCF0895882311F084EC01C084E886BFCB
:100E300006B607FEFDCF83B108950F93882311F006
:100E40006F9A01C06F986E9A662319F0613091F520
:100E50002BC0BC9ABB9ABD9ABF9ABE986C9A442389
:100E600019F0413021F402C06B9A01C06B98222323
:100E700021F0213019F46A9A01C06A98003161F0BA
:100E8000013118F40430B1F405C0003441F00038E9
:100E900089F407C0689801C0689A69980BC068987F
:100EA00001C0689A699A06C0BC98BB98BD98BF9863
:100EB000BE9A6C980F910895613019F4C39AC49842
:100EC00004C0623011F4C49AC3988FB9779BFECFE7
:100ED0000895779BFECF8FB108959B01AC0194E0FC
:100EE000220F331F441F551F9A95D1F760E072E11E
:100EF0008AE790E00E94290C215030404040504049
:100F000080B58F7780BD29B9232F342F452F5527E2
:100F100020BD88E18AB986E880937C0180BD089570
:100F20005D9BFECF8CB9089510927D0106C05D9B3C
:100F3000FECFECB92F5F20937D0120917D01FC0154
:100F4000E20FF11DE081EE2391F708955F9BFECF44
:100F50008CB10895882321F0823009F043C1A2C0EA
:100F6000613069F0613028F0623079F06330B1F4BB
:100F70000FC083B7877F83BF83B78E7F0EC083B7D1
:100F8000806483BF83B7877F08C083B78F7B02C02D
:100F900083B7806483BF83B7886083BF48305105BF
:100FA000F9F04930510554F44230510571F14330A4
:100FB000510571F141305105A1F50CC081E040307F
:100FC0005807D1F084E040305807C9F0403451054B
:100FD00041F50FC083B7816083BF83B78D7F05C0A4
:100FE00083B78E7F83BF83B7826083BF83B78B7FD6
:100FF00017C083B78160F6CF83B78E7F02C083B7F7
:10100000816083BF83B78D7F08C083B78E7F02C0A6
:1010100083B7816083BF83B7826083BF83B78460F7
:1010200083BF662311F06230D9F4213051F02130B2
:1010300028F0223061F0233099F40CC083B78F7E02
:1010400002C083B7806183BF83B78F7D08C083B739
:101050008F7E02C083B7806183BF83B7806283BF06
:10106000613019F0633009F0BDC0213059F02130F2
:1010700030F0223069F0233009F0B4C00CC083B7DF
:101080008F7E02C083B7806183BF83B78F7D08C026
:1010900083B78F7E02C083B7806183BF83B78062CE
:1010A00083BF0895613051F0613028F0623061F003
:1010B000633099F40CC085B58F7B02C085B5806420
:1010C00085BD85B5877F08C085B58F7B02C085B596
:1010D000806485BD85B5886085BD48305105F9F0CF
:1010E0004930510554F44230510571F143305105F6
:1010F00071F141305105A1F50CC081E04030580735
:10110000D1F084E040305807C9F04034510541F532
:101110000FC085B5816085BD85B58D7F05C085B55E
:101120008E7F85BD85B5826085BD85B58B7F17C0F7
:1011300085B58160F6CF85B58E7F02C085B58160AB
:1011400085BD85B58D7F08C085B58E7F02C085B50C
:10115000816085BD85B5826085BD85B5846085BDAE
:10116000662311F06230D9F4213051F0213028F09B
:10117000223061F0233099F40CC085B58F7E02C017
:1011800085B5806185BD85B58F7D08C085B58F7EAD
:1011900002C085B5806185BD85B5806285BD613041
:1011A00011F06330F9F4213051F0213028F0223071
:1011B00061F02330B9F410C085B58F7E02C085B5CB
:1011C000806185BD85B58F7D05C085B58F7E85BD68
:1011D00085B5806285BD089585B5806185BD85B57D
:1011E000806285BD0895882319F0823021F512C0F0
:1011F000CB01BA0120E030E048EC52E40E94430108
:1012000020E030E040E853E40E9449000E944D0293
:101210006CBF0895CB01BA0120E030E048EC52E405
:101220000E94430120E030E040E853E40E9449007E
:101230000E944D0263BD0895882351F4662319F47A
:1012400089B782600BC0613081F489B7816006C0C4
:10125000823059F4662321F489B7806889BF0895E4
:10126000613019F489B7806489BF0895282F6AE036
:101270000E941D0C96E0899FC0011124820F0895E1
:10128000EF92FF920F931F93182F062FF42E0E94B8
:10129000020780ED0E940B0787E00E940B0780E0A9
:1012A0000E940B070E940807812F0E943609E82E32
:1012B000802F0E943609082F8F2D0E943609182F83
:1012C0000E94020780ED0E940B0780E00E940B073E
:1012D000812F0E940B07802F0E940B078E2D0E94EA
:1012E0000B070E9408071F910F91FF90EF90089540
:1012F0008F929F92AF92BF92CF92DF92FF920F9305
:101300001F936C015B014A010E94020780ED0E945D
:101310000B0780E00E940B070E9408070E9402074B
:1013200081ED0E940B0781E00E941207F82E81E0F8
:101330000E941207082F80E00E941207182F0E94B7
:101340000807812F82958F702AEF3FEF829F802DB3
:101350001124810FF6018083802F82958F70829FE8
:10136000802D1124800FF50180838F2D82958F7041
:10137000829F802D11248F0DF40180831F910F9186
:10138000FF90DF90CF90BF90AF909F908F90089587
:1013900087E490E061E00E94E9060895EF92FF92F1
:1013A0000F931F93CF93DF9385E7E82E81E0F82E0C
:1013B00000E010E029C081E6F701608140E00E9472
:1013C000B405C0E0D0E011C0FE01E858FE4F83E64E
:1013D00060810E947206882339F480E197E20197C8
:1013E000F1F7802F9C2F18C021968091740190E016
:1013F000C817D9074CF381E6F70161917F0141E0FD
:101400000E94B4050F5F1F4F8091740190E0081790
:1014100019078CF285E095E0DF91CF911F910F9134
:10142000FF90EF900895CF93DF9381E662E041E073
:101430000E94340581E661E041E00E94340581E6C6
:1014400060E041E00E94340583E665E040E00E94F0
:10145000340583E666E040E00E94340583E667E0F9
:1014600040E00E943405C0E0D0E009C0FE01EB5826
:10147000FE4F81E6608141E00E94B4052196809193
:10148000740190E0C817D9078CF3C0E0D0E009C020
:10149000FE01E858FE4F83E6608141E00E94B405FA
:1014A00021968091740190E0C817D9078CF3DF91E1
:1014B000CF9108950F931F9384E666E041E00E9468
:1014C000B40500ED17E0C8010197F1F784E666E086
:1014D00040E00E94B405C8010197F1F71F910F91F8
:1014E00008951F93182F81E663E040E00E94B40541
:1014F00012951F7082E6612F0E9453060E945A0ABD
:101500001F9108951F93182F81E663E041E00E9428
:10151000B405612F62956F7082E60E9453060E94A7
:101520005A0A1F7082E6612F0E9453060E945A0ACF
:101530001F910895CF93DF93EC0102C00E94820AAD
:1015400089918823D9F7DF91CF9108951F93182FA0
:1015500081E663E040E00E94B405612F62956F7000
:1015600082E60E9453060E945A0A1F7082E6612F8B
:101570000E9453060E945A0A1F910895DF93CF9349
:1015800000D0CDB7DEB790E8998390EC9A83615094
:10159000FE01E80FF11D8081860F0E94A60A80E4FB
:1015A0009CE90197F1F70F900F90CF91DF9108958B
:1015B00081E00E94A60A08950F931F9382E660E0DF
:1015C00041E00E94340582E661E041E00E9434057A
:1015D00082E662E041E00E94340582E663E041E099
:1015E0000E94340581E663E041E00E94340584E610
:1015F00066E041E00E94340580E30E94710A00E247
:101600001EE4C8010197F1F780E30E94710AC80146
:101610000197F1F780E30E94710AC8010197F1F781
:1016200080E20E94710AC8010197F1F7C801019791
:10163000F1F788E20E94A60A8CE00E94A60A86E0E2
:101640000E94A60A80E80E94A60A80E49CE901970D
:10165000F1F71F910F910895823069F0833018F4EB
:101660008130A9F405C0833051F0843081F40BC07F
:101670008BB392E002C08BB394E0892702C08BB396
:1016800080588BBB08958BB390E489278BBB08955A
:10169000823091F0833018F4813061F505C08330D9
:1016A00099F0843039F519C0662319F081E661E0BC
:1016B00018C081E661E00FC0662319F081E662E0A0
:1016C00010C081E662E007C0662319F083E667E098
:1016D00008C083E667E040E005C0662331F083E69A
:1016E00066E041E00E94B405089583E666E040E0CC
:1016F0000E94B4050895823069F0833018F4813077
:10170000B9F405C0833049F0843091F40CC081E60F
:1017100061E005C081E662E002C083E667E041E087
:101720000E943405089583E666E041E00E94340596
:10173000089581E661E041E00E94340581E662E0BF
:1017400041E00E94340583E666E041E00E943405F2
:1017500083E667E041E00E9434050895EF920F931D
:1017600080E461E045E020E000E0EE240E943D04DA
:1017700085E00E94EE04AA2797FDA095BA2FBC0130
:10178000CD010E94EF0126EF38E24CE950E40E94BF
:10179000490020E030E040E251E40E9443010F9113
:1017A000EF900895AF92BF92CF92DF92EF92FF92A7
:1017B0000F931F93DF93CF93CDB7DEB7E2970FB6AA
:1017C000F894DEBF0FBECDBF0E94DC0A7E010894F4
:1017D000E11CF11C90E6A92E90E0B92E88ECC82EF1
:1017E000D12C0E94AE0B00D000D000D00DB71EB798
:1017F0000F5F1F4FEDB7FEB7F282E182F801B382AF
:10180000A2820E944D02F801758364830E94820CBB
:101810008DB79EB706960FB6F8949EBF0FBE8DBFCC
:101820000E94D80AC7010E949A0A88EE93E0F60146
:101830003197F1F70197D9F7D4CF991B79E004C01C
:10184000991F961708F0961B881F7A95C9F78095FF
:101850000895A1E21A2EAA1BBB1BFD010DC0AA1FF1
:10186000BB1FEE1FFF1FA217B307E407F50720F009
:10187000A21BB30BE40BF50B661F771F881F991F84
:101880001A9469F760957095809590959B01AC01CD
:10189000BD01CF0108952F923F924F925F926F92B8
:1018A0007F928F929F92AF92BF92CF92DF92EF92F0
:1018B000FF920F931F93CF93DF93CDB7DEB7CA1B71
:1018C000DB0B0FB6F894DEBF0FBECDBF09942A889C
:1018D000398848885F846E847D848C849B84AA8444
:1018E000B984C884DF80EE80FD800C811B81AA81D1
:1018F000B981CE0FD11D0FB6F894DEBF0FBECDBF9C
:10190000ED010895AEE0B0E0E8E8FCE00C94590C7D
:101910000D891E8986E08C831A8309838FEF9FE7E8
:101920009E838D839E01275E3F4FCE0101966F8976
:10193000788DA9010E94A60C2F813885020F131FF4
:10194000F80110822E96E4E00C94750CABE0B0E048
:10195000ECEAFCE00C944B0C3C012B015A01FC011D
:1019600017821682838181FD03C06FEF7FEFC6C1AE
:101970009AE0892E1E010894211C311CF301238159
:10198000F20123FD859123FF81912F01882309F422
:10199000B2C1853239F423FD859123FF81912F0156
:1019A000853229F490E0B3010E94990EE7CF982F79
:1019B000FF24EE249924FFE1FF15D0F09B3269F05B
:1019C0009C3228F4903259F0933291F40EC09D323B
:1019D00049F0903369F441E024C052E0F52A84E0F4
:1019E000F82A28C098E0F92A25C0E0E1FE2A22C0A2
:1019F000F7FC29C0892F80538A3070F4F6FE05C0A9
:101A0000989C902C1124980E15C0E89CE02C112471
:101A1000E80EF0E2FF2A0EC09E3229F4F6FC6BC1FC
:101A200040E4F42A07C09C3619F450E8F52A02C0B5
:101A3000983649F4F20123FD959123FF91912F01EE
:101A4000992309F0B8CF892F8554833018F080523C
:101A5000833038F444E050E0A40EB51E5FE35983B0
:101A60000FC0933631F0933779F0933509F056C0B3
:101A700020C0F5018081898342E050E0A40EB51EAC
:101A8000610101E010E012C0F501C080D180F6FCD8
:101A900003C06FEF7FEF02C0692D70E042E050E0BD
:101AA000A40EB51EC6010E948E0E8C015FE7F522C2
:101AB00014C0F501C080D180F6FC03C06FEF7FEF4A
:101AC00002C0692D70E042E050E0A40EB51EC601D0
:101AD0000E94830E8C0150E8F52AF3FE07C01AC05D
:101AE00080E290E0B3010E94990EEA948E2D90E07E
:101AF00008171907A8F30EC0F601F7FC8591F7FE49
:101B000081916F0190E0B3010E94990EE110EA9477
:101B1000015010400115110579F7EAC0943611F013
:101B2000993669F5F7FE08C0F501208131814281BF
:101B3000538184E090E00AC0F501808191819C018D
:101B4000442737FD4095542F82E090E0A80EB91E3F
:101B50009FE6F92257FF09C0509540953095219591
:101B60003F4F4F4F5F4FE0E8FE2ACA01B901A10184
:101B70002AE030E00E94C50ED82ED21840C095371A
:101B800029F41F2D1F7E2AE030E01DC01F2D197F74
:101B90009F3661F0903720F4983509F0ACC00FC043
:101BA000903739F0983709F0A6C004C028E030E03B
:101BB0000AC0106114FD146020E130E004C014FD7F
:101BC000166020E132E017FF08C0F50160817181E5
:101BD0008281938144E050E008C0F50180819181C9
:101BE000BC0180E090E042E050E0A40EB51EA101EF
:101BF0000E94C50ED82ED2188FE7F82EF122F6FEDD
:101C00000BC05EEFF522D91438F4F4FE07C0F2FCE5
:101C100005C08FEEF82202C01D2D01C0192DF4FE63
:101C20000DC0FE01ED0DF11D8081803319F499EE98
:101C3000F92208C01F5FF2FE05C003C08F2D867811
:101C400009F01F5F0F2DF3FC14C0F0FE0FC01E152E
:101C500010F09D2C0BC09D2C9E0C911A1E2D06C0C1
:101C600080E290E0B3010E94990E1F5F1E15C0F341
:101C700004C01E1510F4E11A01C0EE2404FF0FC0C9
:101C800080E390E0B3010E94990E02FF1DC001FDA8
:101C900003C088E790E00EC088E590E00BC0802F7D
:101CA000867891F001FF02C08BE201C080E2F7FC70
:101CB0008DE290E0B3010E94990E06C080E390E0AF
:101CC000B3010E94990E9A94D914C0F3DA94F101E9
:101CD000ED0DF11D808190E0B3010E94990EDD2091
:101CE000A9F706C080E290E0B3010E94990EEA9441
:101CF000EE20C1F743CEF30166817781CB012B96AD
:101D0000E2E10C94670CFC010590615070400110F9
:101D1000D8F7809590958E0F9F1F0895FC01615014
:101D2000704001900110D8F7809590958E0F9F1FFD
:101D300008950F931F93CF93DF938C01EB018B8159
:101D400081FF1BC082FF0DC02E813F818C819D8150
:101D50002817390764F4E881F9810193F983E8834E
:101D600006C0E885F985802F0995892B31F48E818D
:101D70009F8101969F838E8302C00FEF1FEFC801E2
:101D8000DF91CF911F910F910895FA01AA27283072
:101D900051F1203181F1E8946F936E7F6E5F7F4F38
:101DA0008F4F9F4FAF4FB1E03ED0B4E03CD0670FB4
:101DB000781F891F9A1FA11D680F791F8A1F911D07
:101DC000A11D6A0F711D811D911DA11D20D009F457
:101DD00068943F912AE0269F11243019305D319399
:101DE000DEF6CF010895462F4770405D4193B3E082
:101DF0000FD0C9F7F6CF462F4F70405D4A3318F029
:101E0000495D31FD4052419302D0A9F7EACFB4E0D9
:101E1000A6959795879577956795BA95C9F7009791
:101E20006105710508959B01AC010A2E0694579532
:101E3000479537952795BA95C9F7620F731F841F89
:0A1E4000951FA01D0895F894FFCF30
:101E4A0074656D702069733A2564630000000000B0
:101E5A000000000000010202030303030404040457
:101E6A00040404040505050505050505050505051C
:101E7A0005050505060606060606060606060606FC
:101E8A0006060606060606060606060606060606E8
:101E9A0006060606070707070707070707070707CC
:101EAA0007070707070707070707070707070707B8
:101EBA0007070707070707070707070707070707A8
:101ECA000707070707070707070707070707070798
:101EDA00070707070808080808080808080808087C
:101EEA000808080808080808080808080808080868
:101EFA000808080808080808080808080808080858
:101F0A000808080808080808080808080808080847
:101F1A000808080808080808080808080808080837
:101F2A000808080808080808080808080808080827
:101F3A000808080808080808080808080808080817
:101F4A000808080808080808080808080808080807
:0C1F5A0008080808030201000506070043
:00000001FF
