:100000000C942A000C9447000C9447000C94470071
:100010000C9447000C9447000C9447000C94470044
:100020000C9447000C9447000C9447000C94470034
:100030000C9447000C9447000C9447000C94470024
:100040000C9447000C9447000C9447000C94470014
:100050000C94470011241FBECFE5D8E0DEBFCDBF12
:1000600011E0A0E6B0E0EAE8F3E202C005900D92EC
:10007000AE39B107D9F711E0AEE9B1E001C01D9288
:10008000A43AB107E1F70E941B0E0C94C3110C9423
:100090000000EF92FF920F931F937B018C0120E0F1
:1000A00030E040E05FE40E94C50388238CF0C80183
:1000B000B70120E030E040E05FE40E94C1010E940F
:1000C00053049B01AC01205030404040504806C0D2
:1000D000C801B7010E9453049B01AC01B901CA01D8
:1000E0001F910F91FF90EF900895A0E0B0E0EBE733
:1000F000F0E00C94E40EDC012B01FA019C919230AB
:1001000008F439C1EB018881823008F433C194309E
:1001100069F4843009F02FC111969C91119789815F
:10012000981709F428C1A0E8B0E025C1843009F48B
:1001300021C18230A9F4923009F01DC19A01AD01AC
:1001400088E0EA010990AE01E90109929E0181501F
:10015000C1F7E201898111969C918923818308C1AD
:10016000923009F407C112962D903C901397EB0141
:100170008A819B811496AD90BD90CD90DC901797AD
:10018000EC80FD800E811F819101281B390BB90184
:1001900037FF04C066277727621B730B6032710537
:1001A0000CF061C0121613066CF537014801062EDB
:1001B00004C096948794779467940A94D2F721E0C8
:1001C00030E040E050E004C0220F331F441F551FB1
:1001D0006A95D2F721503040404050402E213F21B7
:1001E00040235123211531054105510521F021E01E
:1001F00030E040E050E079018A01E628F72808293C
:1002000019293CC0232BD1F1260E371E350146019A
:10021000062E04C096948794779467940A94D2F734
:1002200021E030E040E050E004C0220F331F441FC3
:10023000551F6A95D2F721503040404050402A2146
:100240003B214C215D21211531054105510521F04E
:1002500021E030E040E050E059016A01A628B728CB
:10026000C828D9280BC0821593052CF01C01AA249C
:10027000BB24650103C0EE24FF24870111969C91E5
:10028000D20111968C91981709F445C0992339F041
:10029000A80197012A193B094C095D0906C0A6016E
:1002A00095012E193F09400B510B57FD08C01182D3
:1002B0003382228224833583468357831DC081E0A5
:1002C00081833382228288279927DC01821B930B4A
:1002D000A40BB50B84839583A683B7830DC0220F2F
:1002E000331F441F551F24833583468357838281E0
:1002F000938101979383828324813581468157813D
:10030000DA01C9010197A109B1098F5F9F4FAF4F72
:10031000BF4328F30BC0918333822282EA0CFB1C7B
:100320000C1D1D1DE482F5820683178383E0808304
:10033000248135814681578157FF1AC0C901AA27F8
:1003400097FDA095BA2F81709070A070B0705695EF
:10035000479537952795822B932BA42BB52B848318
:100360009583A683B7838281938101969383828349
:10037000DF0101C0D201CD01CDB7DEB7E2E10C94BF
:10038000000FA0E2B0E0E7ECF1E00C94F00E69831E
:100390007A838B839C832D833E834F835887E9E048
:1003A000EE2EF12CEC0EFD1ECE010196B7010E943F
:1003B000CB058E010F5E1F4FCE010596B8010E943E
:1003C000CB058A8991E089278A8BC701B801AE01E4
:1003D000475E5F4F0E9475000E94F604A096E6E01B
:1003E0000C940C0FA0E2B0E0E8EFF1E00C94F00EFA
:1003F00069837A838B839C832D833E834F835887C5
:10040000F9E0EF2EF12CEC0EFD1ECE010196B701A6
:100410000E94CB058E010F5E1F4FCE010596B801DD
:100420000E94CB05C701B801AE01475E5F4F0E9435
:1004300075000E94F604A096E6E00C940C0FA0E272
:10044000B0E0E5E2F2E00C94E40E69837A838B83FA
:100450009C832D833E834F835887CE010196BE0136
:10046000675F7F4F0E94CB05CE010596BE016F5E90
:100470007F4F0E94CB059985923088F08989823020
:10048000C8F0943019F4823051F404C0843029F457
:10049000923081F480E890E0C6C0923049F420E0C8
:1004A0009A858A89981321E02A87CE010996BBC0D4
:1004B000823049F420E09A858A89981321E02A8BBA
:1004C000CE014196B0C02D843E844F8458886D88FB
:1004D0007E888F88988CEE24FF248701AA24BB2471
:1004E000650140E050E060E070E0E0E0F0E0C10174
:1004F00081709070892BE9F0E60CF71C081D191D1E
:100500009A01AB012A0D3B1D4C1D5D1D80E090E062
:10051000A0E0B0E0E614F7040805190520F481E036
:1005200090E0A0E0B0E0BA01A901480F591F6A1F8E
:100530007B1FAA0CBB1CCC1CDD1C97FE08C081E0F5
:1005400090E0A0E0B0E0A82AB92ACA2ADB2A3196B6
:10055000E032F10549F0660C771C881C991C569412
:10056000479437942794C3CFFA85EA892B893C892D
:100570008B859C85280F391F2E5F3F4F17C0CA01FE
:1005800081709070892B61F016950795F794E79428
:1005900080E090E0A0E0B0E8E82AF92A0A2B1B2BC3
:1005A00076956795579547952F5F3F4F77FDE7CF36
:1005B0000CC0440F551F661F771F17FD4160EE0CDE
:1005C000FF1C001F111F21503040403090E05907A0
:1005D00090E0690790E4790760F32B8F3C8FDB0193
:1005E000CA018F779070A070B07080349105A1051A
:1005F000B10561F447FD0AC0E114F10401051105DC
:1006000029F0405C5F4F6F4F7F4F40781A8EFE1786
:1006100011F081E08A8F4D8F5E8F6F8F78A383E01A
:10062000898FCE0149960E94F604A096E2E10C94CF
:10063000000FA8E1B0E0EFE1F3E00C94EC0E698369
:100640007A838B839C832D833E834F835887B9E0C5
:10065000EB2EF12CEC0EFD1ECE010196B7010E948F
:10066000CB058E010F5E1F4FCE010596B8010E948B
:10067000CB052985223008F47EC03989323010F448
:10068000B8017CC08A859A8989278A87243011F02D
:10069000223031F4231709F06EC060E870E06EC0BC
:1006A000343039F41D861E861F86188A1C861B86E8
:1006B00004C0323021F484E08987B7015FC02B8504
:1006C0003C858B899C89281B390B3C872B87ED84C3
:1006D000FE840F851889AD88BE88CF88D88CEA142F
:1006E000FB040C051D0540F4EE0CFF1C001F111F40
:1006F000215030403C872B8720E030E040E050E044
:1007000080E090E0A0E0B0E460E070E0EA14FB0478
:100710000C051D0540F0282B392B4A2B5B2BEA18C2
:10072000FB080C091D09B695A79597958795EE0CC2
:10073000FF1C001F111F6F5F7F4F6F31710531F775
:10074000DA01C9018F779070A070B0708034910584
:10075000A105B10561F427FD0AC0E114F10401050A
:10076000110529F0205C3F4F4F4F5F4F20782D87B8
:100770003E874F87588BBE01675F7F4FCB010E943A
:10078000F6046896EAE00C94080FA8E1B0E0EBEC00
:10079000F3E00C94F00E69837A838B839C832D8322
:1007A0003E834F83588789E0E82EF12CEC0EFD1E26
:1007B000CE010196B7010E94CB058E010F5E1F4F3F
:1007C000CE010596B8010E94CB058985823040F0A4
:1007D0008989823028F0C701B8010E94430601C010
:1007E0008FEF6896E6E00C940C0FA8E0B0E0EBEF1A
:1007F000F3E00C94ED0E9B01AC0183E08983DA01F8
:10080000C9018827B7FD83959927AA27BB27B82E4A
:10081000211531054105510519F482E089833AC05B
:100820008823A9F0203080E0380780E0480780E87E
:10083000580729F460E070E080E09FEC30C0EE24BF
:10084000FF248701E21AF30A040B150B02C0790199
:100850008A018EE1C82ED12CDC82CB82ED82FE8211
:100860000F831887C801B7010E94A70401971816C3
:10087000190684F4082E04C0EE0CFF1C001F111F83
:100880000A94D2F7ED82FE820F831887C81AD90A1C
:10089000DC82CB82BA82CE0101960E94F6042896B1
:1008A000E9E00C94090FACE0B0E0E9E5F4E00C9469
:1008B000F40E69837A838B839C83CE010196BE01FB
:1008C0006B5F7F4F0E94CB058D81823061F182305A
:1008D00050F1843021F48E81882351F12EC02F8174
:1008E000388537FD20C06E812F3131051CF066231D
:1008F000F9F023C08EE190E0821B930B29853A85A5
:100900004B855C8504C056954795379527958A9504
:10091000D2F76623B1F050954095309521953F4F21
:100920004F4F5F4F0EC020E030E040E050E009C084
:100930002FEF3FEF4FEF5FE704C020E030E040E0F3
:1009400050E8B901CA012C96E2E00C94100FEF9226
:10095000FF920F931F937B018C0180E0E81680E0EB
:10096000F80681E0080780E0180788F48FEFE816A2
:10097000F1040105110531F028F088E090E0A0E0D5
:10098000B0E017C080E090E0A0E0B0E012C080E0EE
:10099000E81680E0F80680E0080781E0180728F0F4
:1009A00088E190E0A0E0B0E004C080E190E0A0E049
:1009B000B0E020E230E040E050E0281B390B4A0B69
:1009C0005B0B04C016950795F794E7948A95D2F7C8
:1009D000F701E857FF4F8081281B31094109510970
:1009E000C9011F910F91FF90EF900895DF92EF9250
:1009F000FF920F931F93FC01E480F580068117811D
:100A0000D1808081823048F480E090E0A0E1B0E0C5
:100A1000E82AF92A0A2B1B2BA5C0843009F49FC0B1
:100A2000823021F4EE24FF24870105C0E114F10493
:100A30000105110519F4E0E0F0E096C062817381D0
:100A40009FEF623879070CF05BC022E83FEF261B6E
:100A5000370B2A3131052CF020E030E040E050E047
:100A60002AC0B801A701022E04C076956795579554
:100A700047950A94D2F781E090E0A0E0B0E004C08E
:100A8000880F991FAA1FBB1F2A95D2F70197A109AA
:100A9000B1098E219F21A023B1230097A105B105A3
:100AA00021F081E090E0A0E0B0E09A01AB01282BBA
:100AB000392B4A2B5B2BDA01C9018F779070A0701C
:100AC000B07080349105A105B10539F427FF09C044
:100AD000205C3F4F4F4F5F4F04C0215C3F4F4F4F53
:100AE0005F4FE0E0F0E02030A0E03A07A0E04A07E6
:100AF000A0E45A0710F0E1E0F0E079018A0127C094
:100B00006038710564F5FB01E158FF4FD801C7015A
:100B10008F779070A070B07080349105A105B105F9
:100B200039F4E7FE0DC080E490E0A0E0B0E004C03E
:100B30008FE390E0A0E0B0E0E80EF91E0A1F1B1F53
:100B400017FF05C016950795F794E794319687E04F
:100B500016950795F794E7948A95D1F705C0EE248A
:100B6000FF248701EFEFF0E06E2F6795662767950A
:100B7000902F9F77D794DD24D7948E2F8695492F79
:100B8000462B582F5D29B701CA011F910F91FF9085
:100B9000EF90DF900895FC01DB01408151812281BB
:100BA000622F6F7770E0221F2227221F9381892FE7
:100BB000880F822B282F30E0991F9927991F1196B3
:100BC0009C93119721153105A9F541155105610532
:100BD000710511F482E037C082E89FEF13969C9371
:100BE0008E9312979A01AB0167E0220F331F441FC7
:100BF000551F6A95D1F783E08C930DC0220F331FE8
:100C0000441F551F12968D919C911397019713962F
:100C10009C938E931297203080E0380780E048073D
:100C200080E4580758F314962D933D934D935C93AD
:100C3000179708952F3F310579F441155105610546
:100C4000710519F484E08C93089564FF03C081E07A
:100C50008C9312C01C9210C02F57304013963C93B7
:100C60002E93129783E08C9387E0440F551F661FE5
:100C7000771F8A95D1F7706414964D935D936D93A9
:100C80007C93179708951F93DC01FB019C91923090
:100C900008F447C08081823008F443C0943051F496
:100CA00011961C91843099F58181682F70E0611B49
:100CB00071093FC0843021F0923031F48230B9F1B3
:100CC0008181882389F12DC011961C911197823062
:100CD000F1F081811817D9F412962D913C91139758
:100CE000828193818217930794F028173907BCF00B
:100CF00014968D919D910D90BC91A02D24813581EC
:100D000046815781281739074A075B0718F41123D2
:100D100041F00AC082179307A407B50740F41123D6
:100D200019F061E070E005C06FEF7FEF02C060E096
:100D300070E0CB011F910895843409F464C08534B8
:100D400048F4823471F1833408F044C0813409F0EE
:100D500072C00EC0823629F1833620F4813609F044
:100D60006AC006C08336B1F1843609F064C04BC056
:100D7000442359F02AB381E090E002C0880F991F04
:100D80006A95E2F7282B2ABB08952AB381E090E008
:100D900002C0880F991F6A95E2F7809582238ABB6B
:100DA0000895442359F027B381E090E002C0880FF2
:100DB000991F6A95E2F7282B27BB089527B381E096
:100DC00090E002C0880F991F6A95E2F78095822310
:100DD00087BB0895442359F024B381E090E002C01A
:100DE000880F991F6A95E2F7282B24BB089524B336
:100DF00081E090E002C0880F991F6A95E2F7809524
:100E0000822384BB0895442359F021B381E090E00C
:100E100002C0880F991F6A95E2F7282B21BB08951D
:100E200021B381E090E002C0880F991F6A95E2F734
:100E30008095822381BB0895843409F464C085348D
:100E400048F4823471F1833408F044C0813409F0ED
:100E500072C00EC0823629F1833620F4813609F043
:100E60006AC006C08336B1F1843609F064C04BC055
:100E7000442359F02BB381E090E002C0880F991F02
:100E80006A95E2F7282B2BBB08952BB381E090E005
:100E900002C0880F991F6A95E2F7809582238BBB69
:100EA0000895442359F028B381E090E002C0880FF0
:100EB000991F6A95E2F7282B28BB089528B381E093
:100EC00090E002C0880F991F6A95E2F7809582230F
:100ED00088BB0895442359F025B381E090E002C017
:100EE000880F991F6A95E2F7282B25BB089525B333
:100EF00081E090E002C0880F991F6A95E2F7809523
:100F0000822385BB0895442359F022B381E090E009
:100F100002C0880F991F6A95E2F7282B22BB08951B
:100F200022B381E090E002C0880F991F6A95E2F732
:100F30008095822382BB08958434D9F0853438F4B7
:100F4000823499F0833498F48134A1F40CC0823651
:100F500061F0833618F4813669F405C0833639F0C0
:100F6000843641F406C06ABB089567BB089564BB2C
:100F7000089561BB08958434D9F0853438F48234FF
:100F800099F0833498F48134A1F40CC0823661F076
:100F9000833618F4813669F405C0833639F0843617
:100FA00041F406C06BBB089568BB089565BB089506
:100FB00062BB08958434E1F0853438F48234A1F0C2
:100FC0008334A0F4813461F40DC0823669F0833635
:100FD00018F4813629F406C0833641F0843641F096
:100FE0002EE40FC029B305C026B303C023B301C04C
:100FF00020B381E090E002C0880F991F6A95E2F764
:101000002823822F0895FC01379A339A83818130F7
:1010100011F43D9A01C03D98808191818031910504
:10102000F1F08131910548F48430910591F08830D8
:10103000910599F00297E9F409C080349105A1F077
:101040008038910599F08097A1F40BC030983198C1
:1010500002C03098319A32980CC0309AFBCF309849
:1010600001C0309A319804C0309801C0309A319A4A
:10107000329A8481813039F0813018F0833029F43C
:1010800002C03E9801C03E9A3F9887B19581892B56
:1010900087B90895369A349BFECF24B135B1C90182
:1010A0000895843409F44CC0853448F4823479F1CD
:1010B000833408F05EC0813409F073C00FC08236FB
:1010C00031F1833620F4813609F06BC007C08336D6
:1010D00009F44FC0843609F064C032C0452B59F082
:1010E0002AB381E090E002C0880F991F6A95E2F769
:1010F000282B2ABB08952AB381E090E002C0880F14
:10110000991F6A95E2F7809582238ABB0895452B43
:1011100059F027B381E090E002C0880F991F6A95CB
:10112000E2F7282B27BB089527B381E090E002C0A7
:10113000880F991F6A95E2F78095822387BB0895EF
:10114000452B59F021B381E090E002C0880F991F30
:101150006A95E2F7282B21BB089521B381E090E046
:1011600002C0880F991F6A95E2F78095822381BBA0
:101170000895452B59F024B381E090E002C0880F18
:10118000991F6A95E2F7282B24BB089524B381E0C8
:1011900090E002C0880F991F6A95E2F7809582233C
:1011A00084BB0895843409F44CC0853448F48234F7
:1011B00079F1833408F05EC0813409F073C00FC048
:1011C000823631F1833620F4813609F06BC007C0D6
:1011D000833609F44FC0843609F064C032C0452B11
:1011E00059F02BB381E090E002C0880F991F6A95F7
:1011F000E2F7282B2BBB08952BB381E090E002C0CF
:10120000880F991F6A95E2F7809582238BBB08951A
:10121000452B59F028B381E090E002C0880F991F58
:101220006A95E2F7282B28BB089528B381E090E067
:1012300002C0880F991F6A95E2F78095822388BBC8
:101240000895452B59F022B381E090E002C0880F49
:10125000991F6A95E2F7282B22BB089522B381E0FB
:1012600090E002C0880F991F6A95E2F7809582236B
:1012700082BB0895452B59F025B381E090E002C070
:10128000880F991F6A95E2F7282B25BB089525B38F
:1012900081E090E002C0880F991F6A95E2F780957F
:1012A000822385BB08958434C9F0853438F48234B0
:1012B00099F08334A8F48134A1F40CC0823661F033
:1012C000833618F4813669F405C0833649F08436D4
:1012D00041F404C06ABB089567BB089561BB0895DB
:1012E00064BB08958434C9F0853438F4823499F0AD
:1012F0008334A8F48134A1F40CC0823661F08336C3
:1013000018F4813669F405C0833649F0843641F417
:1013100004C06BBB089568BB089562BB089565BBAC
:1013200008958434D1F0853438F48234A1F08334C4
:10133000B0F4813461F40DC0823669F0833618F45C
:10134000813629F406C0833651F0843631F020E02E
:101350000FC029B305C026B303C020B301C023B317
:1013600081E090E002C0880F991F6A95E2F7282378
:10137000822F089580B9643061F0653018F46130CF
:1013800079F405C0603141F0603451F407C0089829
:1013900001C0089A099804C0089801C0089A099ADF
:1013A00084E086BF089584EA86BF06B607FEFDCFB7
:1013B000089584E986BF089583B984E886BF06B698
:1013C00007FEFDCF0895882311F084EC01C084E866
:1013D00086BF06B607FEFDCF83B10895FC01BB9A18
:1013E0008081843018F4823050F403C0863080F459
:1013F00009C083B7806483BF83B7877F08C083B782
:101400008F7B02C083B7806483BF83B7886083BF4C
:101410008181863019F0873051F403C083B7806131
:1014200002C083B78F7E83BF83B7806283BF828110
:10143000938188309105F1F08930910548F481302D
:10144000910569F18130910578F00297D9F531C0A5
:1014500021E080309207D1F024E080309207C9F07B
:101460008034910579F50FC083B7816083BF83B75E
:101470008D7F05C083B78E7F83BF83B7826083BFB4
:1014800083B78B7F14C083B78160F6CF83B78E7F1D
:1014900002C083B7816083BF83B78D7F05C083B7E8
:1014A0008E7F83BF83B7826083BF83B7846083BF2F
:1014B000089583B7816083BF83B7826083BF83B79A
:1014C000846083BF089520E030E04FE753E40E943A
:1014D0001F020E9449006CBF08950F93882311F0EA
:1014E0006F9A01C06F986E9A662319F0613091F57A
:1014F0002BC0BC9ABB9ABD9ABF9ABE986C9A4423E3
:1015000019F0413021F402C06B9A01C06B9822237C
:1015100021F0213019F46A9A01C06A98003161F013
:10152000013118F40430B1F405C0003441F0003842
:1015300089F407C0689801C0689A69980BC06898D8
:1015400001C0689A699A06C0BC98BB98BD98BF98BC
:10155000BE9A6C980F910895613019F4C39AC4989B
:1015600004C0623011F4C49AC3988FB9779BFECF40
:101570000895779BFECF8FB1089521E089309207BF
:10158000C1F121E08A30920788F48133910511F18D
:101590008233910520F4C09709F03FC02FC08833F3
:1015A0009105E9F080349105C1F51EC02FE5863420
:1015B000920741F12FE58734920720F48050944040
:1015C00061F51CC02FE58235920709F18F569E46C2
:1015D00021F514C08091A201887F81601BC0809199
:1015E000A20182608A7F16C08091A20183608B7FF6
:1015F00011C08091A2018C7F84600CC08091A201F7
:10160000887F08C08091A201887F866003C0809196
:10161000A201876083BF1092A201662331F089B7CF
:10162000816089BF89B78D7F02C089B7826089BF19
:1016300089B78E7F89BF7894089583B78F7B83BFE6
:1016400083B7877F83BF83B7806183BF83B780629F
:1016500083BF089583B7806483BF89B7877F89BFBD
:1016600083B7806183BF83B7806283BF089583B7E8
:10167000806483BF89B7886089BF83B7806183BF77
:1016800083B7806283BF089583B78F7B83BF89B799
:10169000886089BF08959B01AC0194E0220F331F3D
:1016A000441F551F9A95D1F760E072E18AE790E0F8
:1016B0000E94C20E215030404040504080B58F778C
:1016C00080BD29B9232F342F452F552720BD88E110
:1016D0008AB986E88093A20180BD08955D9BFECF04
:1016E0008CB908951092A30106C05D9BFECFECB9A2
:1016F0002F5F2093A3012091A301FC01E20FF11DB4
:10170000E081EE2391F708955F9BFECF8CB10895A1
:10171000282F6AE00E94B60E96E0899FC00111242E
:10172000820F0895EF92FF920F931F93182F062FA9
:10173000F42E0E94D30980ED0E94DC0987E00E940C
:10174000DC0980E00E94DC090E94D909812F0E94F7
:10175000880BE82E802F0E94880B082F8F2D0E9467
:10176000880B182F0E94D30980ED0E94DC0980E0CD
:101770000E94DC09812F0E94DC09802F0E94DC0975
:101780008E2D0E94DC090E94D9091F910F91FF90B4
:10179000EF9008958F929F92AF92BF92CF92DF9277
:1017A000FF920F931F936C015B014A010E94D309C2
:1017B00080ED0E94DC0980E00E94DC090E94D909CA
:1017C0000E94D30981ED0E94DC0981E00E94E309B7
:1017D000F82E81E00E94E309082F80E00E94E309CF
:1017E000182F0E94D909812F82958F702AEF3FEF21
:1017F000829F802D1124810FF6018083802F829596
:101800008F70829F802D1124800FF50180838F2D92
:1018100082958F70829F802D11248F0DF40180831B
:101820001F910F91FF90DF90CF90BF90AF909F904E
:101830008F90089587E490E061E00E94BA090895CE
:10184000EF92FF920F931F93CF93DF9389E8E82ED7
:1018500081E0F82E00E010E029C081E6F701608108
:1018600040E00E941C07C0E0D0E011C0FE01E45738
:10187000FE4F83E660810E94DA07882339F480E115
:1018800097E20197F1F7802F9C2F18C02196809145
:10189000880190E0C817D9074CF381E6F701619100
:1018A0007F0141E00E941C070F5F1F4F809188015C
:1018B00090E0081719078CF285E095E0DF91CF9151
:1018C0001F910F91FF90EF900895CF93DF9381E6E2
:1018D00062E041E00E949C0681E661E041E00E94F6
:1018E0009C0681E660E041E00E949C0683E665E09C
:1018F00040E00E949C0683E666E040E00E949C0671
:1019000083E667E040E00E949C06C0E0D0E009C0AA
:10191000FE01E757FE4F81E6608141E00E941C070F
:1019200021968091880190E0C817D9078CF3C0E018
:10193000D0E009C0FE01E457FE4F83E6608141E03C
:101940000E941C0721968091880190E0C817D90752
:101950008CF3DF91CF9108950F931F9384E666E097
:1019600041E00E941C0700ED17E0C8010197F1F764
:1019700084E666E040E00E941C07C8010197F1F789
:101980001F910F9108951F93182F81E663E040E0A7
:101990000E941C0712951F7082E6612F0E94BB07F0
:1019A0000E94AC0C1F9108951F93182F81E663E0ED
:1019B00041E00E941C07612F62956F7082E60E94D1
:1019C000BB070E94AC0C1F7082E6612F0E94BB0710
:1019D0000E94AC0C1F910895CF93DF93EC0102C0DD
:1019E0000E94D40C89918823D9F7DF91CF91089573
:1019F0001F93182F81E663E040E00E941C07612FCF
:101A000062956F7082E60E94BB070E94AC0C1F704B
:101A100082E6612F0E94BB070E94AC0C1F910895C3
:101A2000DF93CF9300D0CDB7DEB790E8998390ECE9
:101A30009A836150FE01E80FF11D8081860F0E949C
:101A4000F80C80E49CE90197F1F70F900F90CF918B
:101A5000DF91089581E00E94F80C08950F931F9381
:101A600082E660E041E00E949C0682E661E041E09F
:101A70000E949C0682E662E041E00E949C0682E6AB
:101A800063E041E00E949C0681E663E041E00E9441
:101A90009C0684E666E041E00E949C0680E30E948A
:101AA000C30C00E21EE4C8010197F1F780E30E9435
:101AB000C30CC8010197F1F780E30E94C30CC80171
:101AC0000197F1F780E20E94C30CC8010197F1F77A
:101AD000C8010197F1F788E20E94F80C8CE00E949F
:101AE000F80C86E00E94F80C80E80E94F80C80E474
:101AF0009CE90197F1F71F910F910895823069F0E9
:101B0000833018F48130A9F405C0833051F084305B
:101B100081F40BC08BB392E002C08BB394E08927B1
:101B200002C08BB380588BBB08958BB390E4892798
:101B30008BBB0895823091F0833018F4813061F5C9
:101B400005C0833099F0843039F519C0662319F047
:101B500081E661E018C081E661E00FC0662319F0FC
:101B600081E662E010C081E662E007C0662319F0FA
:101B700083E667E008C083E667E040E005C06623CF
:101B800031F083E666E041E00E941C07089583E699
:101B900066E040E00E941C070895823069F08330BF
:101BA00018F48130B9F405C0833049F0843091F4E1
:101BB0000CC081E661E005C081E662E002C083E618
:101BC00067E041E00E949C06089583E666E041E0FC
:101BD0000E949C06089581E661E041E00E949C0617
:101BE00081E662E041E00E949C0683E666E041E017
:101BF0000E949C0683E667E041E00E949C060895EF
:101C00008FE891E00E9403080E944A08AA2797FDE6
:101C1000A095BA2FBC01CD010E94F50326EF38E252
:101C20004CE950E40E941F0220E030E040E251E421
:101C30000E94190308958F929F92AF92BF92CF9204
:101C4000DF92EF92FF920F931F93DF93CF93CDB765
:101C5000DEB7EB970FB6F894DEBF0FBECDBF0E9484
:101C60002E0D0E94650CDE011196E5E9F1E089E098
:101C700001900D928150E1F76AE0E62EF12CEC0E16
:101C8000FD1E58ECC52ED12C4DE7842E40E0942E3D
:101C90005E010894A11CB11C81E063E00E94100D5C
:101CA000C70160E670E00E941B0FC7010E94EC0CA8
:101CB00080E197E2F6013197F1F70197D9F70E9499
:101CC0002A0DC7016DE670E00E941B0FC7010E943C
:101CD000EC0C88E893E1F6013197F1F70197D9F719
:101CE00082E063E00E94100D00E010E038C000D0F8
:101CF00000D000D0ADB7BEB71196EDB7FEB7F282F7
:101D0000E18213969C928E92129790E0FC01EE0F66
:101D1000FF1FE80FF91FE20FF11DEA0DFB1D808187
:101D200014968C93149715961C920E94220F8DB7CF
:101D30009EB706960FB6F8949EBF0FBE8DBFC70123
:101D40000E94EC0C80E197E2F6013197F1F70197E0
:101D5000D9F70F5F1F4F0C30110509F49DCF0E947A
:101D6000200C292F853009F0C2CFF5CF991B79E0DF
:101D700004C0991F961708F0961B881F7A95C9F71B
:101D800080950895A1E21A2EAA1BBB1BFD010DC070
:101D9000AA1FBB1FEE1FFF1FA217B307E407F5071B
:101DA00020F0A21BB30BE40BF50B661F771F881FF7
:101DB000991F1A9469F760957095809590959B018D
:101DC000AC01BD01CF0108952F923F924F925F92D7
:101DD0006F927F928F929F92AF92BF92CF92DF923B
:101DE000EF92FF920F931F93CF93DF93CDB7DEB7A0
:101DF000CA1BDB0B0FB6F894DEBF0FBECDBF099434
:101E00002A88398848885F846E847D848C849B848A
:101E1000AA84B984C884DF80EE80FD800C811B8198
:101E2000AA81B981CE0FD11D0FB6F894DEBF0FBEC7
:101E3000CDBFED010895FB01DC0101900D92002062
:101E4000E1F70895AEE0B0E0E8E2FFE00C94F20EB6
:101E50000D891E8986E08C831A8309838FEF9FE7A3
:101E60009E838D839E01275E3F4FCE0101966F8931
:101E7000788DA9010E94460F2F813885020F131F0C
:101E8000F80110822E96E4E00C940E0FABE0B0E067
:101E9000ECE4FFE00C94E40E3C012B015A01FC0140
:101EA00017821682838181FD03C06FEF7FEFC6C169
:101EB0009AE0892E1E010894211C311CF301238114
:101EC000F20123FD859123FF81912F01882309F4DD
:101ED000B2C1853239F423FD859123FF81912F0111
:101EE000853229F490E0B3010E943911E7CF982F91
:101EF000FF24EE249924FFE1FF15D0F09B3269F016
:101F00009C3228F4903259F0933291F40EC09D32F5
:101F100049F0903369F441E024C052E0F52A84E0AE
:101F2000F82A28C098E0F92A25C0E0E1FE2A22C05C
:101F3000F7FC29C0892F80538A3070F4F6FE05C063
:101F4000989C902C1124980E15C0E89CE02C11242C
:101F5000E80EF0E2FF2A0EC09E3229F4F6FC6BC1B7
:101F600040E4F42A07C09C3619F450E8F52A02C070
:101F7000983649F4F20123FD959123FF91912F01A9
:101F8000992309F0B8CF892F8554833018F08052F7
:101F9000833038F444E050E0A40EB51E5FE359836B
:101FA0000FC0933631F0933779F0933509F056C06E
:101FB00020C0F5018081898342E050E0A40EB51E67
:101FC000610101E010E012C0F501C080D180F6FC93
:101FD00003C06FEF7FEF02C0692D70E042E050E078
:101FE000A40EB51EC6010E942E118C015FE7F522DA
:101FF00014C0F501C080D180F6FC03C06FEF7FEF05
:1020000002C0692D70E042E050E0A40EB51EC6018A
:102010000E9423118C0150E8F52AF3FE07C01AC074
:1020200080E290E0B3010E943911EA948E2D90E095
:1020300008171907A8F30EC0F601F7FC8591F7FE03
:1020400081916F0190E0B3010E943911E110EA948F
:10205000015010400115110579F7EAC0943611F0CE
:10206000993669F5F7FE08C0F5012081318142817A
:10207000538184E090E00AC0F501808191819C0148
:10208000442737FD4095542F82E090E0A80EB91EFA
:102090009FE6F92257FF09C050954095309521954C
:1020A0003F4F4F4F5F4FE0E8FE2ACA01B901A1013F
:1020B0002AE030E00E946511D82ED21840C0953732
:1020C00029F41F2D1F7E2AE030E01DC01F2D197F2F
:1020D0009F3661F0903720F4983509F0ACC00FC0FE
:1020E000903739F0983709F0A6C004C028E030E0F6
:1020F0000AC0106114FD146020E130E004C014FD3A
:10210000166020E132E017FF08C0F501608171819F
:102110008281938144E050E008C0F5018081918183
:10212000BC0180E090E042E050E0A40EB51EA101A9
:102130000E946511D82ED2188FE7F82EF122F6FEF4
:102140000BC05EEFF522D91438F4F4FE07C0F2FCA0
:1021500005C08FEEF82202C01D2D01C0192DF4FE1E
:102160000DC0FE01ED0DF11D8081803319F499EE53
:10217000F92208C01F5FF2FE05C003C08F2D8678CC
:1021800009F01F5F0F2DF3FC14C0F0FE0FC01E15E9
:1021900010F09D2C0BC09D2C9E0C911A1E2D06C07C
:1021A00080E290E0B3010E9439111F5F1E15C0F359
:1021B00004C01E1510F4E11A01C0EE2404FF0FC084
:1021C00080E390E0B3010E94391102FF1DC001FDC0
:1021D00003C088E790E00EC088E590E00BC0802F38
:1021E000867891F001FF02C08BE201C080E2F7FC2B
:1021F0008DE290E0B3010E94391106C080E390E0C7
:10220000B3010E9439119A94D914C0F3DA94F10100
:10221000ED0DF11D808190E0B3010E943911DD20A8
:10222000A9F706C080E290E0B3010E943911EA9458
:10223000EE20C1F743CEF30166817781CB012B9667
:10224000E2E10C94000FFC01059061507040011018
:10225000D8F7809590958E0F9F1F0895FC016150CF
:10226000704001900110D8F7809590958E0F9F1FB8
:1022700008950F931F93CF93DF938C01EB018B8114
:1022800081FF1BC082FF0DC02E813F818C819D810B
:102290002817390764F4E881F9810193F983E88309
:1022A00006C0E885F985802F0995892B31F48E8148
:1022B0009F8101969F838E8302C00FEF1FEFC8019D
:1022C000DF91CF911F910F910895FA01AA2728302D
:1022D00051F1203181F1E8946F936E7F6E5F7F4FF3
:1022E0008F4F9F4FAF4FB1E03ED0B4E03CD0670F6F
:1022F000781F891F9A1FA11D680F791F8A1F911DC2
:10230000A11D6A0F711D811D911DA11D20D009F411
:1023100068943F912AE0269F11243019305D319353
:10232000DEF6CF010895462F4770405D4193B3E03C
:102330000FD0C9F7F6CF462F4F70405D4A3318F0E3
:10234000495D31FD4052419302D0A9F7EACFB4E094
:10235000A6959795879577956795BA95C9F700974C
:102360006105710508959B01AC010A2E06945795ED
:10237000479537952795BA95C9F7620F731F841F44
:0A238000951FA01D0895F894FFCFEB
:10238A007E7E7374617274696E677E7E00456E74B8
:10239A0065722061206E756D6265723A002564006F
:1023AA000000000000000000000102020303030312
:1023BA0004040404040404040505050505050505CB
:1023CA0005050505050505050606060606060606AB
:1023DA000606060606060606060606060606060693
:1023EA00060606060606060607070707070707077B
:1023FA000707070707070707070707070707070763
:10240A000707070707070707070707070707070752
:10241A000707070707070707070707070707070742
:10242A00070707070707070708080808080808082A
:10243A000808080808080808080808080808080812
:10244A000808080808080808080808080808080802
:10245A0008080808080808080808080808080808F2
:10246A0008080808080808080808080808080808E2
:10247A0008080808080808080808080808080808D2
:10248A0008080808080808080808080808080808C2
:10249A0008080808080808080808080808080808B2
:1024AA00080808080808080803020100050607804A
:0E24BA000000000305000102030405060708E8
:00000001FF
